:100000000C945E000C9486000C9486000C94860080
:100010000C9486000C9486000C9486000C94860048
:100020000C9486000C9486000C9486000C94860038
:100030000C9486000C9486000C9486000C94860028
:100040000C942A050C9486000C949A050C94740563
:100050000C9486000C9486000C9486000C94860008
:100060000C9486000C9486000000000024002700F9
:100070002A0000000000250028002B0004040404CE
:100080000404040402020202020203030303030342
:10009000010204081020408001020408102001021F
:1000A00004081020000000080002010000030407FB
:1000B0000000000000000000CC05060B11241FBE4C
:1000C000CFEFD8E0DEBFCDBF24E0ACEFB1E001C0A0
:1000D0001D92AF3FB207E1F711E0A0E0B1E0E4E626
:1000E000FCE102C005900D92AC3FB107D9F710E0DA
:1000F000CDE5D0E004C02197FE010E94F80BCC357D
:10010000D107C9F70E9459060C94250E0C940000E3
:10011000E1EBF0E02491EDE9F0E09491E9E8F0E022
:10012000E491EE23C9F0222339F0233001F1A8F441
:10013000213019F1223029F1F0E0EE0FFF1FEE58C7
:10014000FF4FA591B4912FB7F894EC91811126C07F
:1001500090959E239C932FBF08952730A9F02830B7
:10016000C9F0243049F7209180002F7D03C02091F1
:1001700080002F7720938000DFCF24B52F7724BD18
:10018000DBCF24B52F7DFBCF2091B0002F772093BC
:10019000B000D2CF2091B0002F7DF9CF9E2BDACFC7
:1001A0002FB7F894609108027091090280910A02B9
:1001B00090910B022FBF08950895AF92BF92CF92F6
:1001C000DF92EF92FF920F931F93CF93DF936C0117
:1001D0007B018B01040F151FEB015E01AE18BF08F8
:1001E000C017D10759F06991D601ED91FC910190AA
:1001F000F081E02DC6010995892B79F7C501DF91C2
:10020000CF911F910F91FF90EF90DF90CF90BF9013
:10021000AF900895FC01538D448D252F30E0842F3D
:1002200090E0821B930B541710F0CF96089501971E
:100230000895FC01918D828D981761F0A28DAE0F0B
:10024000BF2FB11D5D968C91928D9F5F9F73928F92
:1002500090E008958FEF9FEF08950F931F930E94F2
:10026000D00060931402709315028093160290934D
:1002700017028CE092E00E94190197FF1DC00E94B6
:10028000D0000091140210911502209116023091B5
:100290001702601B710B820B930B009110021091DF
:1002A0001102209112023091130260177107820728
:1002B0009307F8F28FEF9FEF1F910F910895FC01C4
:1002C000918D828D981731F0828DE80FF11D858D0B
:1002D00090E008958FEF9FEF0895FC01918D228D9E
:1002E000892F90E0805C9F4F821B91098F73992723
:1002F00008958CE092E00E946D0121E0892B09F4C1
:1003000020E0822F089580E090E0892B29F00E9460
:10031000790181110C9400000895FC01A48DA80FAF
:10032000B92FB11DA35ABF4F2C91848D90E0019637
:100330008F739927848FA689B7892C93A089B18957
:100340008C91837080648C93938D848D981306C0F8
:100350000288F389E02D80818F7D80830895EF925C
:10036000FF920F931F93CF93DF93EC0181E0888F6F
:100370009B8D8C8D98131AC0E889F989808185FF3F
:1003800015C09FB7F894EE89FF896083E889F989E1
:1003900080818370806480839FBF81E090E0DF91E3
:1003A000CF911F910F91FF90EF900895F62E0B8D36
:1003B00010E00F5F1F4F0F731127E02E8C8D8E11F1
:1003C0000CC00FB607FCFACFE889F989808185FF58
:1003D000F5CFCE010E948D01F1CFEB8DEC0FFD2FFB
:1003E000F11DE35AFF4FF0829FB7F8940B8FEA8913
:1003F000FB8980818062CFCFCF93DF93EC01888D22
:100400008823B9F0AA89BB89E889F9898C9185FD8F
:1004100003C0808186FD0DC00FB607FCF7CF8C911D
:1004200085FFF2CF808185FFEDCFCE010E948D0147
:10043000E9CFDF91CF91089542E050E068E171E0AB
:100440008CE092E00C94DD00CF93DF93FC014481BB
:100450005581608171818CE092E00E94DD00EC01A9
:100460000E941C028C0F9D1FDF91CF910895CF93A6
:10047000DF93FC0101900020E9F73197AF01481BA1
:10048000590BBC018CE092E00E94DD00EC010E945F
:100490001C028C0F9D1FDF91CF910895CF93DF93A6
:1004A000EC0188819981009711F00E949A0C1982C1
:1004B00018821D821C821B821A82DF91CF910895BF
:1004C000FC0180819181009711F00C949A0C0895A1
:1004D0002F923F924F925F926F927F928F929F9254
:1004E000AF92BF92CF92DF92EF92FF920F931F9342
:1004F000CF93DF9300D000D0CDB7DEB7FC014480AE
:1005000055804114510409F412C1FB0164807580C7
:100510006114710409F40BC17A016B019C838B8314
:10052000FA01A480B580A618B708FC0100811181EA
:10053000A114B104B9F4F60160817181C8010E946F
:100540000B0E8C01009709F4F2C0F70160817181F4
:10055000448155810E94E00DF70184819581080F47
:10056000191FE9CFB7FC10C0FB0120803180420188
:10057000C801B1010E940B0E009709F44EC0860D10
:10058000971D8A0C9B1CF5CF3801F60160817181A3
:10059000C8010E940B0E2C01009729F14C01801A12
:1005A000910AA401B801C3010E94E00D680C791CF6
:1005B000F7016081718144815581C3010E94E00D82
:1005C000F70184809580680C791CF60104811581FF
:1005D000040D151DEB81FC81848195818A0D9B1D85
:1005E00095838483D2CFB801C3010F900F900F90F1
:1005F0000F90DF91CF911F910F91FF90EF90DF90BF
:10060000CF90BF90AF909F908F907F906F905F90B2
:100610004F903F902F900C94040E4814590409F405
:1006200086C0EB81FC81828193818815990578F4DD
:10063000B4016F5F7F4FC8010E94230D009709F43A
:1006400076C0EB81FC819183808393828282EB81EF
:10065000FC81048115810150110917FD68C0380122
:10066000F601248035802114310409F460C0EB8147
:10067000FC81848095808114910409F458C082140F
:10068000930408F454C00815190520F03401F1E072
:100690006F1A7108EB81FC8140805180C2010FEF1D
:1006A0001FEF9201260D371D3A832983E981FA81D4
:1006B000E817F90788F0F601608171810E940B0E3E
:1006C000009751F09C01241935096216730608F44D
:1006D000980101968901EACF17FD29C0200E311E2D
:1006E000C201820D931DA40142195309BC018A0D58
:1006F0009B1D0E94E90DEB81FC81848195818A0D0F
:100700009B1D9583848320813181820F931FFC017F
:100710001082EB81FC8180819181F7016081718180
:1007200044815581800F911F0E94E00D94CF0F905E
:100730000F900F900F90DF91CF911F910F91FF902D
:10074000EF90DF90CF90BF90AF909F908F907F9071
:100750006F905F904F903F902F9008950F931F934D
:10076000CF93DF93EC0188819981009759F02A811A
:100770003B812617370730F081E0DF91CF911F9141
:100780000F9108958B016F5F7F4F0E94230D00979B
:1007900059F0998388831B830A832C813D81232B05
:1007A00059F7FC011082E8CF80E0E7CFEF92FF928B
:1007B0000F931F93CF93DF936115710541F480E090
:1007C000DF91CF911F910F91FF90EF900895411508
:1007D0005105B1F07B01EC010C811D81040F151F47
:1007E000B8010E94AE03882351F3288139818C819E
:1007F0009D81B701820F931F0E94040E1D830C83FD
:1008000081E0DECFCF93DF93EC01FB01019000206C
:10081000E9F73197AF01461B570B0E94D6038111B0
:1008200003C0CE010E944E02CE01DF91CF91089508
:10083000CF93DF93EC01FB0144815581608171818D
:100840000E94D603811103C0CE010E944E02CE0148
:10085000DF91CF910895EF92FF920F931F93CF9363
:10086000DF93EC017B018A01BA010E94AE03811182
:100870000BC0CE010E944E02CE01DF91CF911F919D
:100880000F91FF90EF9008951D830C83B70188812D
:1008900099810E94040EF0CFFB0101900020E9F73E
:1008A0003197AF01461B570B0C942B040F931F93EA
:1008B000CF93DF93CDB7DEB7A1970FB6F894DEBF25
:1008C0000FBECDBF8C01CB01BA01F801118210829D
:1008D00013821282158214822AE0AE014F5F5F4FAD
:1008E0000E94750BBE016F5F7F4FC8010E944C04D0
:1008F000A1960FB6F894DEBF0FBECDBFDF91CF91AA
:100900001F910F910895CF93DF93CFEDD2E06AE16D
:1009100071E0CE010E944C04269684E0CB3FD807BC
:10092000B1F71092010210920202DF91CF91089567
:10093000CF93DF93EC01FB018617970749F06081A5
:1009400071816115710541F0448155810E942B042C
:10095000CE01DF91CF9108950E944E02F9CFFC01A4
:100960001182108213821282158214820C949804D0
:10097000FC01118210821382128215821482FB0103
:1009800001900020E9F73197AF01461B570B0C94FB
:100990002B04AF92BF92CF92DF92EF92FF920F9310
:1009A0001F93CF93DF936C015B017A0189012417B8
:1009B000350720F48F2D7901042F182F6AE171E09B
:1009C000C6010E94B804D5011496CD91DC91EC16B5
:1009D000FD06E0F40C171D0708F4E801D501ED91C0
:1009E000FC911197EC0FFD1F108110826D917C918D
:1009F0006E0D7F1DC60161157105A1F00E944C04AA
:100A0000F50180819181C80FD91F1883C601DF913C
:100A1000CF911F910F91FF90EF90DF90CF90BF90FB
:100A2000AF9008950E944E02EBCFFC0124813581E6
:100A3000232B39F421E0FB018081882349F020E059
:100A400007C0808191810E94FB0D21E0892BB9F7BD
:100A5000822F08951F920F920FB60F9211242F9399
:100A60003F938F939F93AF93BF9380910802909190
:100A70000902A0910A02B0910B023091070223E013
:100A8000230F2D3758F50196A11DB11D20930702A4
:100A90008093080290930902A0930A02B0930B027C
:100AA0008091030290910402A0910502B091060288
:100AB0000196A11DB11D8093030290930402A0939F
:100AC0000502B0930602BF91AF919F918F913F9124
:100AD0002F910F900FBE0F901F90189526E8230FAF
:100AE0000296A11DB11DD2CF1F920F920FB60F9289
:100AF00011242F933F934F935F936F937F938F9323
:100B00009F93AF93BF93EF93FF938CE092E00E948B
:100B10008D01FF91EF91BF91AF919F918F917F9147
:100B20006F915F914F913F912F910F900FBE0F905A
:100B30001F9018951F920F920FB60F9211242F93AA
:100B40008F939F93EF93FF93E0911C02F0911D020E
:100B50008081E0912202F091230282FD1BC09081EE
:100B6000809125028F5F8F7320912602821741F0BA
:100B7000E0912502F0E0E45FFD4F958F8093250220
:100B8000FF91EF919F918F912F910F900FBE0F903A
:100B90001F9018958081F4CF0F931F93CF93DF930D
:100BA00010920F0210920E0288EE93E0A0E0B0E0E7
:100BB0008093100290931102A0931202B09313023B
:100BC0008AE091E090930D0280930C0285EC90E016
:100BD000909319028093180284EC90E090931B028A
:100BE00080931A0280EC90E090931D0280931C0287
:100BF00081EC90E090931F0280931E0282EC90E0C3
:100C0000909321028093200286EC90E0909323023F
:100C1000809322021092250210922602109227023F
:100C200010922802CFEDD2E00BEF14E06AE171E000
:100C3000CE010E94B80426960C171D07B9F76AE189
:100C400071E087EC92E00E94B8046AE171E08DECFB
:100C500092E00E94B8046AE171E083ED92E00E94A4
:100C6000B8046AE171E089ED92E00E94B8046AE19B
:100C700071E081EC92E00E94B8046AE171E089EAD7
:100C800092E00E94B8046AE171E08FEA92E00E946B
:100C9000B8046AE171E085EB92E00E94B8046AE171
:100CA00071E08BEB92E0DF91CF911F910F910C944B
:100CB000B804CF93DF93CDB7DEB7A3970FB6F89400
:100CC000DEBF0FBECDBF789484B5826084BD84B58D
:100CD000816084BD85B5826085BD85B5816085BD37
:100CE00080916E00816080936E00109281008091EF
:100CF0008100826080938100809181008160809377
:100D00008100809180008160809380008091B1009B
:100D100084608093B1008091B00081608093B000C6
:100D200080917A00846080937A0080917A0082605A
:100D300080937A0080917A00816080937A0080911C
:100D40007A00806880937A001092C100EDE9F0E0AB
:100D50002491E9E8F0E08491882399F090E0880FED
:100D6000991FFC01E859FF4FA591B491FC01EE5881
:100D7000FF4F859194918FB7F894EC91E22BEC930F
:100D80008FBF81E00E948800E0911C02F0911D025B
:100D900082E08083E0911802F09119021082E091C4
:100DA0001A02F0911B0280E1808310922402E091EC
:100DB0002002F091210286E08083E0911E02F091F2
:100DC0001F02808180618083E0911E02F0911F02EA
:100DD000808188608083E0911E02F0911F028081F3
:100DE00080688083E0911E02F0911F0280818F7DD8
:100DF000808385E090E0A0E0B0E0809310029093C3
:100E00001102A0931202B093130280E00E948800A6
:100E10000E94830426E0D22E30E2C32E40E0E42E6E
:100E200040E0F42E8CE092E00E946D01892B09F4E1
:100E300071C0809102028A3510F0109202028091F6
:100E400001028A3510F0109201026AE171E0CE01D0
:100E50000A960E94B8040E942D0197FD0FC08A30A7
:100E6000910561F089831A8241E050E0BE016F5F15
:100E70007F4FCE010A960E94D603EDCF6BE171E061
:100E8000CE0101960E94B8048E859F85892B09F4B6
:100E900026C10A851B8569817A81C8010E940B0ED3
:100EA000009709F41CC19C01201B310B8901CE0164
:100EB00001960E9460020F3F1F4F09F013C18091FD
:100EC000020291E0980F909302028D9DC0011124BF
:100ED000BE01665F7F4F81529D4F0E9498048091B2
:100EE0000002882399F068E271E0CE0101960E9429
:100EF000B804BE01665F7F4FCE0101960E941804C0
:100F00000E942402CE0101960E946002CE010A9640
:100F10000E946002B0900102BD9C80011124015228
:100F20001D4F6AE171E0C8010E941505811167C378
:100F30000E94D0008090FC019090FD01A090FE01E5
:100F4000B090FF0186169706A806B90608F0CCC235
:100F5000B801CE014C960E94AF04BE01645E7F4F83
:100F6000CE0140960E94AF0481E00E9488006AE1B1
:100F700071E0CE0101960E94B80463E371E0CE01F6
:100F80000A960E94B804AE014F5F5F4FBE01665FD4
:100F90007F4FCE0140960E946802CE010A960E94C1
:100FA0006002CE0101960E9460026AE171E0CE010A
:100FB00001960E94B80469E171E0CE010A960E9490
:100FC000B804AE014F5F5F4FBE01665F7F4FCE0139
:100FD00040960E946802CE010A960E946002CE01ED
:100FE00001960E94600287ECA82E82E0B82E94E061
:100FF000992E61EA71E0CE0101960E94B8048C89B5
:101000009D89892B61F06888798869817A81C3011B
:101010000E940B0E8C0106191709892B11F40FEF92
:101020001FEFCE0101960E946002980150E040E05F
:10103000BE01605F7F4FCE0101960E94C9046981A5
:101040007A81C5016115710509F453C00E944C04F1
:10105000CE0101960E9460022C893D89A8014F5F54
:101060005F4FBE01605F7F4FCE0101960E94C904B1
:1010700088899989009709F441C069817A8161154D
:101080007105D1F14A895B892D813E814217530751
:1010900098F10E94040E8D819E819D8B8C8B1E8207
:1010A0001D82CE0101960E9460029A9486E0A80EED
:1010B000B11C91109ECF80E00E948800CE01409626
:1010C0000E94600265E371E087EC92E00E941505E2
:1010D000882329F18AE391E00E943702F2C10FEFE1
:1010E0001FEFE5CE80E291E00E9437020E94830468
:1010F000F6CE0E944E02ACCF0E949A0C89819A8152
:10110000998B888B8B819C819B8B8A8B8D819E8117
:101110009D8B8C8B1A8219821C821B82C0CF6FE33D
:1011200071E087EC92E00E941505882309F454C011
:1011300069ED72E0CE0146960E94AF0463ED72E065
:10114000CE0140960E94AF046DEC72E0CE010A968B
:101150000E94AF0464E471E0CE0101960E94B804DD
:10116000BE01665F7F4FCE0101960E9418048C017C
:10117000CAA21BA241E050E0BE016E5D7F4F0E94FB
:10118000D603811103C0C8010E944E02BE01605FF8
:101190007F4FC8010E9418048C01CAA21BA241E023
:1011A00050E0BE016E5D7F4F0E94D603811103C0E7
:1011B000C8010E944E02BE016A5E7F4FC8010E94B4
:1011C00018040E942402CE0101960E946002CE0102
:1011D0000A960E946002C5C06BE471E087EC92E061
:1011E0000E941505882319F08EE491E075CF69E51A
:1011F00071E087EC92E00E941505882319F089E5DB
:1012000091E06ACF6EE571E087EC92E00E941505EF
:10121000882309F4D0C06DEC72E0CE0146960E949E
:10122000AF048091D3029091D402812C912C54016F
:10123000009721F00E94390B4B015C01BE016A5EF0
:101240007F4FCE010A960E94AF0466E671E0CE01A0
:101250000A960E94150562E671E0811129C06CE6CC
:1012600071E0CE010A960E94150568E671E08111D1
:101270001FC062E771E0CE010A960E9415056EE676
:1012800071E0811115C068E771E0CE010A960E94F5
:10129000150564E771E081110BC06EE771E0CE01C6
:1012A0000A960E941505882309F464C06AE771E074
:1012B00081EC92E00E944C04CE010A960E946002EA
:1012C00069E871E0CE0101960E94B804BE016A5E31
:1012D0007F4FCE0101960E941804BC01CE014096BA
:1012E0000E94AF04CE0101960E9460028114910415
:1012F000A104B10491F10E94D000680D791D8A1DEE
:101300009B1D6093FC017093FD018093FE019093FF
:10131000FF01B501A401CE010A960E94560461E3C3
:1013200071E0CE0101960E94B804BE01665F7F4F56
:10133000CE0101960E941804FC0144815581608110
:101340007181CE0140960E94D603CE0101960E9483
:101350006002CE010A960E946002CE0140960E9471
:101360002402CE0140960E946002CE0146960E9461
:101370006002A7C064E871E0CE010A960E941505DC
:1013800060E871E0811194CF66E871E0CE010196CA
:101390000E94B804BE01665F7F4FCE0101960E9495
:1013A0001804BC0181EC92E00E949804CE010196E1
:1013B0000E94600281CF6FE871E087EC92E00E94AA
:1013C00015058823E1F067E971E0CE010A960E94D5
:1013D000B8046BE971E0CE0101960E94B804BE0129
:1013E000665F7F4FCE0101960E9418040E9424027E
:1013F000CE0101960E946002CE010A96B8CF63EA40
:1014000071E087EC92E00E9415058111DCCF6BEA58
:1014100071E087EC92E00E941505882381F169E96B
:1014200071E0CE0146960E94B80469E971E0CE01F0
:1014300040960E94B80469E971E0CE010A960E94C4
:10144000B80460EB71E0CE0101960E94B804BE01C1
:10145000665F7F4FCE0101960E94180461EA71E039
:101460000E940204BE01605F7F4F0E94180461EA7F
:1014700071E00E940204BE016A5E7F4FA0CE66EB5F
:1014800071E087EC92E00E9415058823C9F16FEBAB
:1014900071E0CE0101960E94B8046DEC72E0CE01BD
:1014A00001960E94180461E371E00E94020463ED5A
:1014B00072E00E9418040E942402CE0101960E944C
:1014C0006002CE014C960E9460028091010291E080
:1014D000980F909301028D9DC00111246AE171E083
:1014E00081529D4F0E944C04E114F10409F49ACCFE
:1014F0000E947901882309F48DCC0E9400008ACCD7
:101500006AEC71E087EC92E00E941505882321F1D6
:101510008091CD029091CE02812C912C54010097A4
:1015200021F00E94390B4B015C010E94D000680D34
:10153000791D8A1D9B1D6093FC017093FD018093B2
:10154000FE019093FF01B501A401CE010A960E940D
:1015500056046FEC71E03FCF66ED71E087EC92E0EE
:101560000E941505882349F06DEC72E0CE010A96C1
:101570000E94AF046BED71E02ECF62EE71E087EC5C
:1015800092E00E941505882321F18091CD0290916F
:10159000CE020097E1F00E94390B862F8093000263
:1015A0001B861A861D861C861F861E864AE0BE0183
:1015B0006F5F7F4F90E00E94970BBE016F5F7F4F80
:1015C000CE010A960E944C0467EE71E004CF80E0E1
:1015D000E5CF6EEE71E087EC92E00E94150588235E
:1015E00029F00E9483048EEE91E076CD67EC72E0E4
:1015F000CE010A960E94AF0464EF71E0ECCE8091B8
:101600000202B81271CF0E9483046ECFCF93DF9392
:101610008BEB92E00E94600285EB92E00E946002F8
:101620008FEA92E00E94600289EA92E00E946002E2
:1016300081EC92E00E94600289ED92E00E946002DB
:1016400083ED92E00E9460028DEC92E00E946002C5
:1016500087EC92E00E946002CBEFD4E02697CE01A7
:101660000E94600282E0CF3DD807C1F7DF91CF91A1
:1016700008951F93FC0199278827BC01E8941191D4
:101680001032E9F3193010F01E30C8F31B3251F05C
:101690001D3249F4689406C00E94600B610F711DF1
:1016A000811D911D119110531A30B0F33EF49095A5
:1016B0008095709561957F4F8F4F9F4F1F91089533
:1016C000592F482F372F262F660F771F881F991FF6
:1016D000660F771F881F991F620F731F841F951F46
:1016E000660F771F881F991F0895BB27FA01A62F41
:1016F0006217710581059105330B30FB66F0AA274F
:10170000660F771F881F991FAA1FA21710F0A21B30
:1017100063953850A9F7A05DAA3308F0A95DA1939D
:1017200036F7B111B1931082CA010C94B10BBB27EB
:10173000FB015527AA27880F991FAA1FA41710F08D
:10174000A41B83955051B9F7A05DAA3308F0A95D99
:10175000A193009779F7B111B1931192CB010C9439
:10176000B10BDC01FC01672F71917723E1F7329710
:1017700004C07C916D9370836291AE17BF07C8F36C
:1017800008952F923F924F925F926F927F928F9225
:101790009F92AF92BF92CF92DF92EF92FF920F9300
:1017A0001F93CF93DF93CDB7DEB7CA1BDB0B0FB60A
:1017B000F894DEBF0FBECDBF09942A8839884888C7
:1017C0005F846E847D848C849B84AA84B984C8845D
:1017D000DF80EE80FD800C811B81AA81B981CE0F54
:1017E000D11D0FB6F894DEBF0FBECDBFED01089539
:1017F000EE0FFF1F0590F491E02D09940F931F93B6
:10180000CF93DF938230910510F482E090E0E09175
:10181000FD04F091FE0430E020E0B0E0A0E030975D
:1018200099F42115310509F44AC0281B390B2430DD
:101830003105D8F58A819B816115710589F1FB011C
:1018400093838283FE0111C0408151810281138103
:1018500048175907E0F04817590799F4109761F0B5
:1018600012960C93129713961C933296CF01DF9128
:10187000CF911F910F9108950093FD041093FE04E2
:10188000F4CF2115310551F04217530738F0A90163
:10189000DB019A01BD01DF01F801C1CFEF01F9CFF2
:1018A0009093FE048093FD04CDCFFE01E20FF31F61
:1018B000819391932250310939832883D7CF209186
:1018C000FB043091FC04232B41F420910201309160
:1018D00003013093FC042093FB042091000130911C
:1018E00001012115310541F42DB73EB740910401A6
:1018F00050910501241B350BE091FB04F091FC0491
:10190000E217F307A0F42E1B3F0B2817390778F0D6
:10191000AC014E5F5F4F2417350748F04E0F5F1F35
:101920005093FC044093FB04819391939FCFF0E08C
:10193000E0E09CCFCF93DF930097E9F0FC01329772
:1019400013821282A091FD04B091FE04ED0130E0FB
:1019500020E01097A1F420813181820F931F209104
:10196000FB043091FC042817390709F061C0F0939B
:10197000FC04E093FB04DF91CF910895EA01CE17B8
:10198000DF07E8F54A815B819E0141155105B1F7FA
:10199000E901FB83EA8349915991C40FD51FEC17E4
:1019A000FD0761F4808191810296840F951FE90102
:1019B00099838883828193819B838A83F0E0E0E02E
:1019C00012968D919C9113970097B9F52D913C91AA
:1019D0001197CD010296820F931F2091FB04309145
:1019E000FC042817390739F6309751F51092FE0498
:1019F0001092FD04B093FC04A093FB04BCCFD383EE
:101A0000C28340815181840F951FC817D90761F4A3
:101A10004E5F5F4F88819981480F591F51834083E2
:101A20008A819B81938382832115310509F0B0CF90
:101A3000F093FE04E093FD049ECFFD01DC01C0CFD6
:101A400013821282D7CFB0E0A0E0E9E2FDE00C946F
:101A5000C30B8C01009751F4CB010E94FE0B8C014B
:101A6000C801CDB7DEB7E0E10C94DF0BFC01E60F57
:101A7000F71F9C0122503109E217F30708F49DC0BB
:101A8000D901CD91DC911197C617D70798F0C530D1
:101A9000D10530F3CE0104978617970708F3C61BCC
:101AA000D70B2297C193D1936D937C93CF010E9462
:101AB0009A0CD6CF5B01AC1ABD0A4C018C0E9D1E50
:101AC000A091FD04B091FE04512C412CF12CE12C8D
:101AD000109731F58091FB049091FC0488159905CD
:101AE00009F05CC04616570608F058C08091000106
:101AF00090910101009741F48DB79EB74091040188
:101B000050910501841B950BE817F90708F055C0A3
:101B1000F093FC04E093FB04F90171836083A0CF90
:101B20008D919C91119712966C90129713967C90C0
:101B30001397A815B90559F56C0142E0C40ED11CE4
:101B4000CA14DB0420F1AC014A195B09DA011296D0
:101B5000159780F06282738251834083D9016D931F
:101B60007C93E114F10471F0D7011396FC93EE938A
:101B7000129776CF22968C0F9D1FF9019183808357
:101B8000F301EFCFF093FE04E093FD0469CF481614
:101B9000590608F42C017D01D3019ACFCB010E9494
:101BA000FE0B7C01009749F0AE01B8010E94E00DE8
:101BB000C8010E949A0C870153CF10E000E050CF7B
:101BC000FB01DC0102C001900D9241505040D8F75A
:101BD00008956817790768F4FB01DC01E40FF51F2D
:101BE000A40FB51F02C002900E9241505040D8F78A
:101BF00008950C94E00DFB01DC018D91019080199A
:101C00000110D9F3990B0895FB01DC0101900D92AD
:101C10000020E1F70895FB0151915523A9F0BF0180
:101C2000DC014D9145174111E1F759F4CD010190C7
:101C3000002049F04D9140154111C9F3FB014111BC
:101C4000EFCF81E090E00197089510E0CDE5D0E07E
:101C500004C0FE010E94F80B2196CE35D107C9F7CA
:041C6000F894FFCF26
:101C64000000FF04800000000000AF01DD000A0155
:101C7400FC016D0119015F010D0A0053544F50001E
:101C840053544F50504544005245434549564544EA
:101C94003A20000D0050494E4700504F4E47004D2A
:101CA4004F5645004D4F56453A200049440049449B
:101CB4002C20524F424F544C00484F4D450041494F
:101CC4005200414952205300414952205500414994
:101CD40052204400414952205600414952204200BA
:101CE400414952204F004E4F004149523A2000537F
:101CF4004F4646534554007E7E7E004F464653452C
:101D0400542C00524F46465345540050524F5800ED
:101D140050524F582C00535045454453455400539A
:101D2400504545445345543A2000574149540057BF
:101D34004149543A200044494E4700444F4E473AE3
:101D440020004543484F004543484F3A2000434C48
:0C1D5400454152004E41434B3A20000034
:00000001FF
